:100000000C9435000C945B000C945B000C945B002A
:100010000C945B000C945B000C945B000C945B00F4
:100020000C945B000C945B000C945B000C945B00E4
:100030000C945B000C945B000C945B000C945B00D4
:100040000C94ED000C945B000C94E6020C945B00A5
:100050000C945B000C945B000C945B000C945B00B4
:100060000C945B000C945B006B0211241FBECFEF5D
:10007000D4E0DEBFCDBF11E0A0E0B1E0E4EDF8E0F8
:1000800002C005900D92AE33B107D9F711E0AEE38F
:10009000B1E001C01D92A73CB107E1F710E0CAE64C
:1000A000D0E004C02297FE010E946604C836D10742
:1000B000C9F70C94E2000C94000040913C0150916F
:1000C0003D01662757FD6095762F20E030E08EE3F6
:1000D00091E00E941E0260E071E08EE391E00E94D8
:1000E0004C0260913C0170913D018EE391E00E94D1
:1000F000390268E071E08EE391E00E944C02409189
:100100003C0150913D01662757FD6095762F20E117
:1001100030E08EE391E00E941E0260E171E08EE328
:1001200091E00E944C0240913C0150913D016627B4
:1001300057FD6095762F28E030E08EE391E00E9435
:100140001E0268E171E08EE391E00E944C02409152
:100150003C0150913D01662757FD6095762F22E0C6
:1001600030E08EE391E00E942E0280913C0190915C
:100170003D018E37910509F4FFCF019690933D0123
:1001800080933C0164E670E080E090E00E942A01E8
:1001900008950F931F930EE311E040E855E260E0ED
:1001A00070E0C8010E94650260E271E0C8010E942F
:1001B000500264E670E080E090E00E942A011F9106
:1001C0000F910895CFEFD4E0DEBFCDBF0E9459015B
:1001D0000E94C9000E945D00FDCF1F920F920FB6D2
:1001E0000F9211248F939F93AF93BF9380914301FC
:1001F00090914401A0914501B09146010196A11D45
:10020000B11D8093430190934401A0934501B093A5
:100210004601BF91AF919F918F910F900FBE0F90AC
:100220001F901895609143017091440180914501A0
:100230009091460127E0660F771F881F991F2A9526
:10024000D1F72DE730E040E050E00E941304CA01EE
:10025000B9010895AF92BF92CF92DF92EF92FF92D1
:100260000F931F935B016C010E9412017B018C01B3
:100270000E9412016E197F09800B910B6A157B0594
:100280008C059D05A8F31F910F91FF90EF90DF90D3
:10029000CF90BF90AF900895019751F0880F991FAC
:1002A000880F991F02972FB7F8940197F1F72FBF86
:1002B00008957894109243011092440110924501E0
:1002C0001092460184B5826084BD84B5816084BD8E
:1002D00085B5826085BD85B5816085BDEEE6F0E0BF
:1002E000808181608083E1E8F0E0808182608083AA
:1002F000808181608083E0E8F0E08081816080839C
:10030000E1EBF0E0808184608083E0EBF0E08081CD
:1003100081608083EAE7F0E080818460808380816F
:100320008260808380818160808380818068808317
:100330001092C100089508950895CB01BA013327A2
:10034000442755270E94340308952AE00E949D0106
:100350000895AB01662777270E94A5010895862F8F
:100360000E9424030895862F0E94240308950F936A
:100370001F938C016DE00E94B3016AE0C8010E94E6
:10038000B3011F910F9108950F931F938C010E9449
:10039000A501C8010E94B7011F910F9108950F9305
:1003A0001F938C010E94A901C8010E94B7011F91EF
:1003B0000F9108950F931F938C010E94AF01C80104
:1003C0000E94B7011F910F9108950F931F938C0105
:1003D0000E94B301C8010E94B7011F910F910895B7
:1003E000EF92FF920F931F93CF93DF93EC017A016B
:1003F0008B0177FF0BC06DE20E94B3011095009551
:10040000F094E094E11CF11C011D111D2AE0B801DB
:10041000A701CE010E949D01DF91CF911F910F9105
:10042000FF90EF9008950F931F938C010E94F001AD
:10043000C8010E94B7011F910F9108952115310540
:1004400021F4642F0E94B30108952A30310519F474
:100450000E94F00108950E949D0108950F931F933B
:100460008C010E941E02C8010E94B7011F910F91CA
:100470000895AB01662757FD6095762F0E94F00125
:1004800008950F931F938C010E943902C8010E94A6
:10049000B7011F910F910895CB010E94F3030895B6
:1004A0000F931F938C010E944C02C8010E94B70158
:1004B0001F910F9108950E94DD0208950E94BE02CF
:1004C00008950E94AD0299270895CB01BA010E94B8
:1004D0006C02089508950895EF92FF920F931F9371
:1004E0007B018C0122E030E040E050E00E943504C6
:1004F000205C3D4B404F5F4FCA01B901A8019701F5
:100500000E9435042150304040405040BB2757FDE9
:10051000BA95A52F942F832F2F5F3F4F4F4F5F4FDB
:100520008093C50021502093C400E1ECF0E080816D
:1005300080618083808188608083808180688083FF
:100540001F910F91FF90EF900895982F8091C00018
:1005500085FFFCCF9093C600089580913F01909154
:1005600040012091410130914201821B930B805840
:100570009F4F60E870E00E9400040895409141019F
:100580005091420180913F0190914001841795075D
:1005900019F48FEF9FEF0895FA01E95BFE4F208178
:1005A000CA01019660E870E00E9400049093420145
:1005B00080934101822F9927089580914101909164
:1005C00042019093400180933F0108951F920F9242
:1005D0000FB60F9211242F933F934F935F936F9316
:1005E0007F938F939F93AF93BF93EF93FF9340912C
:1005F000C600E0913F01F0914001CF01019660E813
:1006000070E00E9400049C018091410190914201A0
:100610002817390739F0E95BFE4F408330934001DA
:1006200020933F01FF91EF91BF91AF919F918F91E7
:100630007F916F915F914F913F912F910F900FBEDE
:100640000F901F9018950895982F8091C00085FFF6
:10065000FCCF9093C60008958091C00085FFFCCF29
:100660008AE08093C60008952F923F924F925F9246
:100670006F927F928F929F92AF92BF92CF92DF92B2
:10068000EF92FF920F931F93CF93DF93CDB7DEB717
:10069000A0970FB6F894DEBF0FBECDBF6B017C01F3
:1006A00029013A01611571058105910541F4809197
:1006B000C00085FFFCCF80E38093C60042C0882441
:1006C000992454011E010894211C311C8101080D3C
:1006D000191DC701B601A30192010E941304F8017C
:1006E00060830894811C911CA11CB11CC701B60138
:1006F000A30192010E94130469017A0121153105B9
:100700004105510519F7F4013197E20DF31D14C0AD
:10071000089481089108A108B10880818A3018F4F2
:10072000982F905D02C0982F995C8091C00085FF42
:10073000FCCF9093C600319781149104A104B104B9
:1007400039F7A0960FB6F894DEBF0FBECDBFDF918C
:10075000CF911F910F91FF90EF90DF90CF90BF90BE
:10076000AF909F908F907F906F905F904F903F9051
:100770002F90089522E030E040E050E00E943403E2
:10078000089528E030E040E050E00E9434030895EE
:1007900020E130E040E050E00E9434030895EF9201
:1007A000FF920F931F937B018C0197FF0FC08091E5
:1007B000C00085FFFCCF8DE28093C60010950095A8
:1007C000F094E094E11CF11C011D111D2AE030E0C1
:1007D00040E050E0C801B7010E9434031F910F911F
:1007E000FF90EF900895FC0107C08091C00085FF45
:1007F000FCCF31969093C60090819923B1F708956C
:1008000097FB092E07260AD077FD04D049D006D0E1
:1008100000201AF4709561957F4F0895F6F7909532
:1008200081959F4F0895A1E21A2EAA1BBB1BFD01C3
:100830000DC0AA1FBB1FEE1FFF1FA217B307E407BF
:10084000F50720F0A21BB30BE40BF50B661F771F17
:10085000881F991F1A9469F76095709580959095F7
:100860009B01AC01BD01CF01089597FB092E052620
:100870000ED057FD04D0D7DF0AD0001C38F45095B5
:100880004095309521953F4F4F4F5F4F0895F6F7B4
:1008900090958095709561957F4F8F4F9F4F0895EC
:1008A000AA1BBB1B51E107C0AA1FBB1FA617B70796
:1008B00010F0A61BB70B881F991F5A95A9F78095B2
:1008C0009095BC01CD010895EE0FFF1F0590F491A6
:0408D000E02D09947A
:1008D4002C206465633A20002C206865783A200057
:1008E4002C206F63743A20002C2062696E3A200039
:1008F4004153434949205461626C65207E2043681A
:0E09040061726163746572204D6170002100A4
:00000001FF
