:100000000C945A000C9475000C9475000C947500B7
:100010000C9475000C9475000C9475000C9475008C
:100020000C9475000C9475000C9475000C9475007C
:100030000C9475000C9475000C9475000C9475006C
:100040000C94BD000C9475000C9475000C94750014
:100050000C9475000C9475000C9475000C9475004C
:100060000C9475000C947500000024272A000025CC
:10007000282B000023262904040404040404040299
:100080000202020202030303030303010204081035
:100090002040800102040810200102040810200002
:1000A0000000070002010000030406000000000039
:1000B0000000000011241FBECFEFD4E0DEBFCDBF93
:1000C00011E0A0E0B1E0EEE6F5E002C005900D928F
:1000D000A430B107D9F711E0A4E0B1E001C01D924E
:1000E000AA30B107E1F70C94B4000C940000089515
:1000F000109205011092040160E070E0809100010F
:100100000E948C016EE170E080E090E00E94FA00B5
:1001100060910401709105016F5F7F4F709305013D
:10012000609304016C3971054CF38BE990E0909376
:100130000501809304016BE970E0809100010E9449
:100140008C016EE170E080E090E00E94FA00609126
:100150000401709105016150704070930501609336
:10016000040177FFEACF0895CFEFD4E0DEBFCDBF23
:100170000E9429010E947800FDCF1F920F920FB6B6
:100180000F9211248F939F93AF93BF938091060199
:1001900090910701A0910801B09109010196A11D5C
:1001A000B11D8093060190930701A0930801B093BD
:1001B0000901BF91AF919F918F910F900FBE0F904A
:1001C0001F901895609106017091070180910801B8
:1001D0009091090127E0660F771F881F991F2A95C4
:1001E000D1F72DE730E040E050E00E949502CA01CF
:1001F000B9010895AF92BF92CF92DF92EF92FF9232
:100200000F931F935B016C010E94E2007B018C0144
:100210000E94E2006E197F09800B910B6A157B0525
:100220008C059D05A8F31F910F91FF90EF90DF9033
:10023000CF90BF90AF900895019751F0880F991F0C
:10024000880F991F02972FB7F8940197F1F72FBFE6
:1002500008957894109206011092070110920801F7
:100260001092090184B5826084BD84B5816084BD2B
:1002700085B5826085BD85B5816085BDEEE6F0E01F
:10028000808181608083E1E8F0E08081826080830A
:10029000808181608083E0E8F0E0808181608083FC
:1002A000E1EBF0E0808184608083E0EBF0E080812E
:1002B00081608083EAE7F0E08081846080838081D0
:1002C0008260808380818160808380818068808378
:1002D0001092C10008958093020108959091020147
:1002E0009295990F990F907C8F70982B90937C002A
:1002F00080917A00806480937A0080917A0086FDF4
:10030000FCCF20917800809179009927982F882739
:100310003327822B932B08951F93CF93DF93182FAE
:10032000EB0161E00E94E001E12FFF27E156FF4F62
:100330008491833051F480918000806880938000A4
:10034000D0938900C093880037C0843051F48091E5
:100350008000806280938000D0938B00C0938A00DD
:100360002BC0813029F484B5806884BDC7BD24C00A
:10037000823029F484B5806284BDC8BD1DC086303A
:1003800041F48091B00080688093B000C093B300C6
:1003900013C0873041F48091B00080628093B00038
:1003A000C093B40009C0C038D10514F460E001C0A6
:1003B00061E0812F0E944A02DF91CF911F91089541
:1003C000282F3327C90185579F4FFC019491295845
:1003D0003F4FF9018491882381F0E82FFF27E859E6
:1003E000FF4FE491FF27662329F4808190958923AC
:1003F000808308958081892B80830895482F552715
:10040000CA0181569F4FFC012491CA0185579F4F15
:10041000FC01949149585F4FFA013491332319F448
:1004200080E090E00895222331F1233021F480917F
:1004300080008F7705C0243031F4809180008F7D5B
:100440008093800018C0213019F484B58F7704C0E0
:10045000223021F484B58F7D84BD0DC0263021F477
:100460008091B0008F7705C0273029F48091B000CB
:100470008F7D8093B000E32FFF27EE58FF4FE4916C
:10048000FF27808120E030E0892311F021E030E077
:10049000C9010895482F5527CA0181569F4FFC0175
:1004A0002491CA0185579F4FFC01949149585F4F91
:1004B000FA0134913323C1F1222331F1233021F4A5
:1004C000809180008F7705C0243031F480918000C6
:1004D0008F7D8093800018C0213019F484B58F7708
:1004E00004C0223021F484B58F7D84BD0DC0263038
:1004F00021F48091B0008F7705C0273029F48091D6
:10050000B0008F7D8093B000E32FFF27E359FF4FAA
:10051000E491FF27662329F48081909589238083C5
:1005200008958081892B80830895A1E21A2EAA1B49
:10053000BB1BFD010DC0AA1FBB1FEE1FFF1FA21793
:10054000B307E407F50720F0A21BB30BE40BF50B90
:10055000661F771F881F991F1A9469F76095709519
:0E056000809590959B01AC01BD01CF010895DF
:04056E000D0001007B
:00000001FF
