:100000000C945B000C9481000C9481000C94810092
:100010000C9481000C9481000C9481000C9481005C
:100020000C9481000C9481000C9481000C9481004C
:100030000C9481000C9481000C9481000C9481003C
:100040000C9429010C9481000C944C040C948100B4
:100050000C9481000C9481000C9481000C9481001C
:100060000C9481000C948100D103000024272A0005
:100070000025282B0000232629040404040404047A
:100080000402020202020203030303030301020447
:10009000081020408001020408102001020408100A
:1000A0002000000007000201000003040600000019
:1000B00000000000000011241FBECFEFD4E0DEBF1F
:1000C000CDBF11E0A0E0B1E0E0EAFBE002C00590A6
:1000D0000D92A031B107D9F711E0A0E1B1E001C064
:1000E0001D92AB39B107E1F710E0CAE6D0E004C0D9
:1000F0002297FE010E94CC05C836D107C9F70C949F
:100100001E010C940000EF92FF920F931F938091B9
:1001100010019091110101969093110180931001AB
:1001200068EE73E080E090E00E94660102E111E079
:1001300060E071E0C8010E94B20383E0E82E81E034
:10014000F82EB701C8010E94B203609110017091AE
:100150001101C8010E949F03B701C8010E94B203A8
:1001600080E00E94DA01BC01C8010E94A70365E09B
:1001700071E0C8010E94B203B701C8010E94B20336
:100180006091100170911101C8010E949F03B70195
:10019000C8010E94B20381E00E94DA01BC01C801DB
:1001A0000E94A70368E071E0C8010E94B203B70192
:1001B000C8010E94B2036091100170911101C80141
:1001C0000E949F03B701C8010E94B20382E00E940F
:1001D000DA01BC01C8010E94A7036BE071E0C8010D
:1001E0000E94B203B701C8010E94B20360911001DE
:1001F00070911101C8010E949F03B701C8010E94BC
:10020000B20383E00E94DA01BC01C8010E94A70387
:100210001F910F91FF90EF90089540E855E260E044
:1002200070E082E191E00E94CB0361E08CE00E94EB
:100230004C0261E08CE00E94B6020895CFEFD4E05A
:10024000DEBFCDBF0E9495010E940D010E94830078
:10025000FDCF1F920F920FB60F9211248F939F9391
:10026000AF93BF938091170190911801A09119014C
:10027000B0911A010196A11DB11D809317019093B1
:100280001801A0931901B0931A01BF91AF919F91EA
:100290008F910F900FBE0F901F90189560911701CE
:1002A000709118018091190190911A0127E0660F51
:1002B000771F881F991F2A95D1F72DE730E040E07E
:1002C00050E00E947905CA01B9010895AF92BF922A
:1002D000CF92DF92EF92FF920F931F935B016C011D
:1002E0000E944E017B018C010E944E016E197F0914
:1002F000800B910B6A157B058C059D05A8F31F915A
:100300000F91FF90EF90DF90CF90BF90AF90089546
:10031000019751F0880F991F880F991F02972FB7E7
:10032000F8940197F1F72FBF089578941092170170
:10033000109218011092190110921A0184B582606E
:1003400084BD84B5816084BD85B5826085BD85B579
:10035000816085BDEEE6F0E0808181608083E1E828
:10036000F0E0808182608083808181608083E0E82A
:10037000F0E0808181608083E1EBF0E08081846047
:100380008083E0EBF0E0808181608083EAE7F0E049
:1003900080818460808380818260808380818160AD
:1003A00080838081806880831092C100089580934B
:1003B0000E01089590910E019295990F990F907CDE
:1003C0008F70982B90937C0080917A00806480934A
:1003D0007A0080917A0086FDFCCF20917800809190
:1003E00079009927982F88273327822B932B0895FC
:1003F0001F93CF93DF93182FEB0161E00E944C0213
:10040000E12FFF27EF55FF4F8491833051F4809106
:100410008000806880938000D0938900C09388001A
:1004200037C0843051F480918000806280938000D6
:10043000D0938B00C0938A002BC0813029F484B5FF
:10044000806884BDC7BD24C0823029F484B5806231
:1004500084BDC8BD1DC0863041F48091B000806865
:100460008093B000C093B30013C0873041F48091F3
:10047000B00080628093B000C093B40009C0C0385F
:10048000D10514F460E001C061E0812F0E94B60242
:10049000DF91CF911F910895282F3327C9018357EA
:1004A0009F4FFC01949127583F4FF9018491882375
:1004B00081F0E82FFF27E659FF4FE491FF276623DD
:1004C00029F4808190958923808308958081892BE8
:1004D00080830895482F5527CA018F559F4FFC01EF
:1004E0002491CA0183579F4FFC01949147585F4F55
:1004F000FA013491332319F480E090E00895222327
:1005000031F1233021F4809180008F7705C02430B1
:1005100031F4809180008F7D8093800018C021305D
:1005200019F484B58F7704C0223021F484B58F7D0F
:1005300084BD0DC0263021F48091B0008F7705C0B6
:10054000273029F48091B0008F7D8093B000E32F95
:10055000FF27EC58FF4FE491FF27808120E030E037
:10056000892311F021E030E0C9010895482F552773
:10057000CA018F559F4FFC012491CA0183579F4F99
:10058000FC01949147585F4FFA0134913323C1F134
:10059000222331F1233021F4809180008F7705C030
:1005A000243031F4809180008F7D8093800018C0CA
:1005B000213019F484B58F7704C0223021F484B53A
:1005C0008F7D84BD0DC0263021F48091B0008F77DF
:1005D00005C0273029F48091B0008F7D8093B00052
:1005E000E32FFF27E159FF4FE491FF27662329F40A
:1005F000808190958923808308958081892B8083D1
:10060000089508950895CB01BA013327442755274B
:100610000E949A0408952AE00E9403030895AB0102
:10062000662777270E940B030895862F0E948A046D
:100630000895862F0E948A0408950F931F938C01BA
:100640006DE00E9419036AE0C8010E9419031F911E
:100650000F9108950F931F938C010E940B03C80103
:100660000E941D031F910F9108950F931F938C01FA
:100670000E940F03C8010E941D031F910F9108954E
:100680000F931F938C010E941503C8010E941D0344
:100690001F910F9108950F931F938C010E941903CE
:1006A000C8010E941D031F910F910895EF92FF92C0
:1006B0000F931F93CF93DF93EC017A018B0177FFA8
:1006C0000BC06DE20E94190310950095F094E09420
:1006D000E11CF11C011D111D2AE0B801A701CE018A
:1006E0000E940303DF91CF911F910F91FF90EF9034
:1006F00008950F931F938C010E945603C8010E9416
:100700001D031F910F9108952115310521F4642FC8
:100710000E94190308952A30310519F40E945603E6
:1007200008950E94030308950F931F938C010E9464
:100730008403C8010E941D031F910F910895AB010E
:10074000662757FD6095762F0E94560308950F93F4
:100750001F938C010E949F03C8010E941D031F91DB
:100760000F910895CB010E94590508950F931F938F
:100770008C010E94B203C8010E941D031F910F91BA
:1007800008950E94430408950E94240408950E943D
:10079000130499270895CB01BA010E94D20308954A
:1007A00008950895EF92FF920F931F937B018C01A0
:1007B00022E030E040E050E00E949B05205C3D4B91
:1007C000404F5F4FCA01B901A80197010E949B05E4
:1007D0002150304040405040BB2757FDBA95A52FCF
:1007E000942F832F2F5F3F4F4F4F5F4F8093C50054
:1007F00021502093C400E1ECF0E08081806180838F
:100800008081886080838081806880831F910F91C0
:10081000FF90EF900895982F8091C00085FFFCCF46
:100820009093C60008958091130190911401209136
:10083000150130911601821B930B80589F4F60E881
:1008400070E00E94660508954091150150911601CF
:1008500080911301909114018417950719F48FEF7B
:100860009FEF0895FA01E55EFE4F2081CA010196CF
:1008700060E870E00E946605909316018093150170
:10088000822F9927089580911501909116019093D8
:1008900014018093130108951F920F920FB60F92C7
:1008A00011242F933F934F935F936F937F938F9375
:1008B0009F93AF93BF93EF93FF934091C600E09156
:1008C0001301F0911401CF01019660E870E00E94DD
:1008D00066059C0180911501909116012817390732
:1008E00039F0E55EFE4F40833093140120931301ED
:1008F000FF91EF91BF91AF919F918F917F916F91F8
:100900005F914F913F912F910F900FBE0F901F90CD
:1009100018950895982F8091C00085FFFCCF909383
:10092000C60008958091C00085FFFCCF8AE08093C7
:10093000C60008952F923F924F925F926F927F92DE
:100940008F929F92AF92BF92CF92DF92EF92FF92DF
:100950000F931F93CF93DF93CDB7DEB7A0970FB65A
:10096000F894DEBF0FBECDBF6B017C0129013A01B7
:10097000611571058105910541F48091C00085FFE5
:10098000FCCF80E38093C60042C0882499245401A0
:100990001E010894211C311C8101080D191DC7017D
:1009A000B601A30192010E947905F80160830894C1
:1009B000811C911CA11CB11CC701B601A3019201AD
:1009C0000E94790569017A0121153105410551051A
:1009D00019F7F4013197E20DF31D14C00894810852
:1009E0009108A108B10880818A3018F4982F905D91
:1009F00002C0982F995C8091C00085FFFCCF909336
:100A0000C600319781149104A104B10439F7A0966E
:100A10000FB6F894DEBF0FBECDBFDF91CF911F910F
:100A20000F91FF90EF90DF90CF90BF90AF909F908D
:100A30008F907F906F905F904F903F902F90089590
:100A400022E030E040E050E00E949A04089528E05F
:100A500030E040E050E00E949A04089520E130E048
:100A600040E050E00E949A040895EF92FF920F93A5
:100A70001F937B018C0197FF0FC08091C00085FF01
:100A8000FCCF8DE28093C60010950095F094E09421
:100A9000E11CF11C011D111D2AE030E040E050E096
:100AA000C801B7010E949A041F910F91FF90EF9027
:100AB0000895FC0107C08091C00085FFFCCF3196EE
:100AC0009093C60090819923B1F7089597FB092E62
:100AD00007260AD077FD04D049D006D000201AF4AA
:100AE000709561957F4F0895F6F7909581959F4F8A
:100AF0000895A1E21A2EAA1BBB1BFD010DC0AA1F5F
:100B0000BB1FEE1FFF1FA217B307E407F50720F076
:100B1000A21BB30BE40BF50B661F771F881F991FF1
:100B20001A9469F760957095809590959B01AC013A
:100B3000BD01CF01089597FB092E05260ED057FD64
:100B400004D0D7DF0AD0001C38F45095409530957A
:100B500021953F4F4F4F5F4F0895F6F79095809541
:100B6000709561957F4F8F4F9F4F0895AA1BBB1BB8
:100B700051E107C0AA1FBB1FA617B70710F0A61B9D
:100B8000B70B881F991F5A95A9F780959095BC01BE
:100B9000CD010895EE0FFF1F0590F491E02D09940B
:100BA0003070002C00317000327000337000010092
:00000001FF
