:100000000C945B000C9481000C9481000C94810092
:100010000C9481000C9481000C9481000C9481005C
:100020000C9481000C9481000C9481000C9481004C
:100030000C9481000C9481000C9481000C9481003C
:100040000C94C8000C9481000C94EB030C94810078
:100050000C9481000C9481000C9481000C9481001C
:100060000C9481000C9481007003000024272A0066
:100070000025282B0000232629040404040404047A
:100080000402020202020203030303030301020447
:10009000081020408001020408102001020408100A
:1000A0002000000007000201000003040600000019
:1000B00000000000000011241FBECFEFD4E0DEBF1F
:1000C000CDBF11E0A0E0B1E0EEEDFAE002C0059096
:1000D0000D92A430B107D9F711E0A4E0B1E001C05E
:1000E0001D92AF38B107E1F710E0CAE6D0E004C0D6
:1000F0002297FE010E946B05C836D107C9F70C9400
:10010000BD000C9400000F931F9380910401909107
:1001100005010196909305018093040168EE73E058
:1001200080E090E00E94050160910401709105015A
:1001300006E011E0C8010E943E0360E071E0C801E2
:100140000E94510380E00E947901BC01C8010E9415
:1001500046031F910F91089540E855E260E070E07A
:1001600086E091E00E946A0361E08CE00E94EB016E
:1001700061E08CE00E9455020895CFEFD4E0DEBF2D
:10018000CDBF0E9434010E94AC000E948300FDCFCD
:100190001F920F920FB60F9211248F939F93AF93DC
:1001A000BF9380910B0190910C01A0910D01B09132
:1001B0000E010196A11DB11D80930B0190930C01BE
:1001C000A0930D01B0930E01BF91AF919F918F91BC
:1001D0000F900FBE0F901F90189560910B017091BA
:1001E0000C0180910D0190910E0127E0660F771FA1
:1001F000881F991F2A95D1F72DE730E040E050E0A5
:100200000E941805CA01B9010895AF92BF92CF921A
:10021000DF92EF92FF920F931F935B016C010E949C
:10022000ED007B018C010E94ED006E197F09800BAF
:10023000910B6A157B058C059D05A8F31F910F9105
:10024000FF90EF90DF90CF90BF90AF90089501970F
:1002500051F0880F991F880F991F02972FB7F894B4
:100260000197F1F72FBF0895789410920B01109227
:100270000C0110920D0110920E0184B5826084BDB4
:1002800084B5816084BD85B5826085BD85B581609A
:1002900085BDEEE6F0E0808181608083E1E8F0E0FA
:1002A000808182608083808181608083E0E8F0E0EB
:1002B000808181608083E1EBF0E0808184608083D5
:1002C000E0EBF0E0808181608083EAE7F0E080810C
:1002D000846080838081826080838081816080836C
:1002E0008081806880831092C1000895809302010C
:1002F0000895909102019295990F990F907C8F70BB
:10030000982B90937C0080917A00806480937A008F
:1003100080917A0086FDFCCF209178008091790051
:100320009927982F88273327822B932B08951F9383
:10033000CF93DF93182FEB0161E00E94EB01E12FD7
:10034000FF27EF55FF4F8491833051F48091800057
:10035000806880938000D0938900C093880037C064
:10036000843051F480918000806280938000D0932B
:100370008B00C0938A002BC0813029F484B580683B
:1003800084BDC7BD24C0823029F484B5806284BD99
:10039000C8BD1DC0863041F48091B0008068809354
:1003A000B000C093B30013C0873041F48091B00017
:1003B00080628093B000C093B40009C0C038D105FA
:1003C00014F460E001C061E0812F0E945502DF91CA
:1003D000CF911F910895282F3327C90183579F4F2D
:1003E000FC01949127583F4FF9018491882381F0B3
:1003F000E82FFF27E659FF4FE491FF27662329F4F2
:10040000808190958923808308958081892B8083C2
:100410000895482F5527CA018F559F4FFC012491FD
:10042000CA0183579F4FFC01949147585F4FFA01CF
:100430003491332319F480E090E00895222331F1C0
:10044000233021F4809180008F7705C0243031F46F
:10045000809180008F7D8093800018C0213019F436
:1004600084B58F7704C0223021F484B58F7D84BD9C
:100470000DC0263021F48091B0008F7705C0273061
:1004800029F48091B0008F7D8093B000E32FFF2787
:10049000EC58FF4FE491FF27808120E030E0892372
:1004A00011F021E030E0C9010895482F5527CA0115
:1004B0008F559F4FFC012491CA0183579F4FFC0128
:1004C000949147585F4FFA0134913323C1F12223AD
:1004D00031F1233021F4809180008F7705C02430E2
:1004E00031F4809180008F7D8093800018C021308E
:1004F00019F484B58F7704C0223021F484B58F7D40
:1005000084BD0DC0263021F48091B0008F7705C0E6
:10051000273029F48091B0008F7D8093B000E32FC5
:10052000FF27E159FF4FE491FF27662329F48081DB
:1005300090958923808308958081892B80830895F5
:1005400008950895CB01BA013327442755270E9407
:10055000390408952AE00E94A2020895AB0166279B
:1005600077270E94AA020895862F0E9429040895E1
:10057000862F0E94290408950F931F938C016DE02C
:100580000E94B8026AE0C8010E94B8021F910F9150
:1005900008950F931F938C010E94AA02C8010E9424
:1005A000BC021F910F9108950F931F938C010E941D
:1005B000AE02C8010E94BC021F910F9108950F93D3
:1005C0001F938C010E94B402C8010E94BC021F91BB
:1005D0000F9108950F931F938C010E94B802C801D8
:1005E0000E94BC021F910F910895EF92FF920F930A
:1005F0001F93CF93DF93EC017A018B0177FF0BC040
:100600006DE20E94B80210950095F094E094E11C10
:10061000F11C011D111D2AE0B801A701CE010E94A5
:10062000A202DF91CF911F910F91FF90EF9008955B
:100630000F931F938C010E94F502C8010E94BC0217
:100640001F910F9108952115310521F4642F0E9407
:10065000B80208952A30310519F40E94F502089570
:100660000E94A20208950F931F938C010E942303FE
:10067000C8010E94BC021F910F910895AB0166272B
:1006800057FD6095762F0E94F50208950F931F93F2
:100690008C010E943E03C8010E94BC021F910F9171
:1006A0000895CB010E94F80408950F931F938C01C5
:1006B0000E945103C8010E94BC021F910F9108952E
:1006C0000E94E20308950E94C30308950E94B203AA
:1006D00099270895CB01BA010E94710308950895E6
:1006E0000895EF92FF920F931F937B018C0122E0FC
:1006F00030E040E050E00E943A05205C3D4B404F26
:100700005F4FCA01B901A80197010E943A05215023
:10071000304040405040BB2757FDBA95A52F942F3D
:10072000832F2F5F3F4F4F4F5F4F8093C500215066
:100730002093C400E1ECF0E08081806180838081BF
:10074000886080838081806880831F910F91FF90F3
:10075000EF900895982F8091C00085FFFCCF909373
:10076000C600089580910701909108012091090128
:1007700030910A01821B930B80589F4F60E870E014
:100780000E94050508954091090150910A01809148
:100790000701909108018417950719F48FEF9FEFD7
:1007A0000895FA01E15FFE4F2081CA01019660E8D9
:1007B00070E00E94050590930A0180930901822F41
:1007C000992708958091090190910A019093080159
:1007D0008093070108951F920F920FB60F92112474
:1007E0002F933F934F935F936F937F938F939F9339
:1007F000AF93BF93EF93FF934091C600E091070141
:10080000F0910801CF01019660E870E00E940505B3
:100810009C018091090190910A012817390739F04C
:10082000E15FFE4F40833093080120930701FF9161
:10083000EF91BF91AF919F918F917F916F915F9158
:100840004F913F912F910F900FBE0F901F901895D1
:100850000895982F8091C00085FFFCCF9093C6002B
:1008600008958091C00085FFFCCF8AE08093C60088
:1008700008952F923F924F925F926F927F928F9244
:100880009F92AF92BF92CF92DF92EF92FF920F931F
:100890001F93CF93DF93CDB7DEB7A0970FB6F89431
:1008A000DEBF0FBECDBF6B017C0129013A0161158E
:1008B00071058105910541F48091C00085FFFCCF51
:1008C00080E38093C60042C08824992454011E010D
:1008D0000894211C311C8101080D191DC701B601A6
:1008E000A30192010E941805F80160830894811CFD
:1008F000911CA11CB11CC701B601A30192010E9469
:10090000180569017A01211531054105510519F7CD
:10091000F4013197E20DF31D14C008948108910889
:10092000A108B10880818A3018F4982F905D02C028
:10093000982F995C8091C00085FFFCCF9093C600F2
:10094000319781149104A104B10439F7A0960FB630
:10095000F894DEBF0FBECDBFDF91CF911F910F91F5
:10096000FF90EF90DF90CF90BF90AF909F908F90CF
:100970007F906F905F904F903F902F90089522E06E
:1009800030E040E050E00E943904089528E030E073
:1009900040E050E00E943904089520E130E040E05A
:1009A00050E00E9439040895EF92FF920F931F9335
:1009B0007B018C0197FF0FC08091C00085FFFCCFA9
:1009C0008DE28093C60010950095F094E094E11CB0
:1009D000F11C011D111D2AE030E040E050E0C8018B
:1009E000B7010E9439041F910F91FF90EF90089575
:1009F000FC0107C08091C00085FFFCCF3196909329
:100A0000C60090819923B1F7089597FB092E072618
:100A10000AD077FD04D049D006D000201AF4709592
:100A200061957F4F0895F6F7909581959F4F0895B2
:100A3000A1E21A2EAA1BBB1BFD010DC0AA1FBB1FE2
:100A4000EE1FFF1FA217B307E407F50720F0A21B54
:100A5000B30BE40BF50B661F771F881F991F1A94C1
:100A600069F760957095809590959B01AC01BD01EB
:100A7000CF01089597FB092E05260ED057FD04D00F
:100A8000D7DF0AD0001C38F4509540953095219559
:100A90003F4F4F4F5F4F0895F6F7909580957095B3
:100AA00061957F4F8F4F9F4F0895AA1BBB1B51E14C
:100AB00007C0AA1FBB1FA617B70710F0A61BB70BCE
:100AC000881F991F5A95A9F780959095BC01CD0173
:0E0AD0000895EE0FFF1F0590F491E02D09949C
:040ADE002C000100E7
:00000001FF
