:100000000C945B000C9481000C9481000C94810092
:100010000C9481000C9481000C9481000C9481005C
:100020000C9481000C9481000C9481000C9481004C
:100030000C9481000C9481000C9481000C9481003C
:100040000C94FD020C9481000C94E7050C94810043
:100050000C9481000C9481000C9481000C9481001C
:100060000C9481000C9481006C05000024272A0068
:100070000025282B0000232629040404040404047A
:100080000402020202020203030303030301020447
:10009000081020408001020408102001020408100A
:1000A0002000000007000201000003040600000019
:1000B00000000000000011241FBECFEFD4E0DEBF1F
:1000C000CDBF11E0A0E0B1E0E6EDFEE002C005909A
:1000D0000D92A031B107D9F711E0A0E1B1E001C064
:1000E0001D92A23BB107E1F710E0CAE6D0E004C0E0
:1000F0002297FE010E946707C836D107C9F70C9402
:10010000F2020C94000061E080910D010E94150440
:1001100061E080910D010E94AB0361E080910B01D1
:100120000E94150460E080910D010E94150460E0BA
:1001300080910B010E94150461E080910B010E94E7
:10014000150461E080910D010E94150460E080912A
:100150000B010E941504089565E070E080E090E0D6
:100160000E943A0310921D0110921C0180910D0112
:100170000E94C903892B31F488E29AE090931D0113
:1001800080931C0161E070E080E090E00E943A03FF
:1001900080911C0190911D01019690931D01809307
:1001A0001C018855924014F308950F931F93CF9329
:1001B000DF9380E880932801C0E0D0E061E0809187
:1001C0000B010E94150400912801112780910D0157
:1001D0000E94C9039C01029FC001039F900D129FC2
:1001E000900D1124C80FD91F60E080910B010E946F
:1001F0001504809128018695809328018823F1F6C3
:10020000CE01DF91CF911F910F9108950E94D500EB
:1002100090931701809316016091180180910D0150
:100220000E94150461E080910D010E94AB0361E022
:1002300080910B010E94150460E080910B010E94E7
:10024000150460E080910D010E94AB0360E0809195
:100250000D010E94150408952FEF40E060910B01FD
:1002600080910D010E9460042FEF40E060910B012E
:1002700080910D010E94600408950F931F9361E027
:100280008BE00E94AB0361E08BE00E94150461E00B
:100290008AE00E94AB0361E08DE00E94AB0309E2BB
:1002A00011E040E855E260E070E0C8010E94660598
:1002B0000E942C0161E08DE00E94150468EE73E05D
:1002C00080E090E00E943A0360E08DE00E94150417
:1002D00060E071E0C8010E9451051F910F910895DF
:1002E00061E080910D010E94AB032091160141E075
:1002F00060910B0180910D010E94600460E080918B
:100300000D010E94AB0360E080910D010E94150475
:1003100060E080910B010E94150461E080910B0167
:100320000E94150480910D010E94C9039093190148
:100330008093180160E080910B010E9415040895DC
:100340000E942C018EE190E090931701809316019A
:1003500081E090E090931901809318010E94700150
:100360006FE070E080E090E00E943A030895EF9221
:10037000FF920F931F930E94A0010E94830006E04A
:1003800010E010931701009316010E94700184E0A1
:1003900090E090931701809316010E94700181E014
:1003A000E82EF12CF0921901E09218010E9406014A
:1003B00064EF71E080E090E00E943A030E94A001A7
:1003C0000E94830010931701009316010E94700190
:1003D00010921701109216010E947001F0921901FB
:1003E000E09218010E9406011F910F91FF90EF907B
:1003F00008950E94A0010E94830087E090E09093FE
:100400001701809316010E9470010E94AC0081E0E8
:1004100090E090931901809318010E940601809149
:1004200016019091170108950F931F93CF93DF93B7
:100430008C010E94A0010E94830010931701009379
:1004400016010E9470010E94AC00109219011092D6
:1004500018010E9406010091160110911701C1E0D8
:10046000D0E0D0931901C09318010E940601102F0B
:1004700000278091160190911701080F191F109302
:100480001B0100931A01012B21F4D0931B01C0938F
:100490001A01DF91CF911F910F91089529C089E230
:1004A00091E00E945F05909325018093240189E2E9
:1004B00091E00E945F05909327018093260120918F
:1004C0002401309125012134310521F024343105F6
:1004D00079F40AC08234910559F481E090E0909358
:1004E00023018093220104C0109223011092220163
:1004F00089E291E00E946205823088F680912201B3
:1005000090912301019709F06CC00E9422039B0186
:10051000AC0160931E0170931F01809320019093A2
:1005200021018091100190911101A0911201B091CF
:10053000130182179307A407B50744F01092100126
:10054000109211011092120110921301809110016A
:1005500090911101A0911201B091130188519C4F0B
:10056000AF4FBF4F82179307A407B507D4F50E947A
:1005700022036093100170931101809312019093F4
:10058000130183E090E00E94140263E071E089E2CD
:1005900091E00E944D0540911A0150911B01662780
:1005A00077272AE030E089E291E00E941F0567E0AA
:1005B00071E089E291E00E944D0585E090E00E94A3
:1005C000140240911A0150911B01662777272AE0F7
:1005D00030E089E291E00E941F0589E291E00E94EB
:1005E000B8040895CFEFD4E0DEBFCDBF0E94690309
:1005F0000E943D010E944E02FDCF1F920F920FB646
:100600000F9211248F939F93AF93BF9380912E01EC
:1006100090912F01A0913001B09131010196A11D5F
:10062000B11D80932E0190932F01A0933001B093C0
:100630003101BF91AF919F918F910F900FBE0F909D
:100640001F90189560912E0170912F0180913001BB
:100650009091310127E0660F771F881F991F2A9517
:10066000D1F72DE730E040E050E00E941407CA01C6
:10067000B9010895AF92BF92CF92DF92EF92FF92AD
:100680000F931F935B016C010E9422037B018C017D
:100690000E9422036E197F09800B910B6A157B055E
:1006A0008C059D05A8F31F910F91FF90EF90DF90AF
:1006B000CF90BF90AF900895019751F0880F991F88
:1006C000880F991F02972FB7F8940197F1F72FBF62
:1006D0000895789410922E0110922F0110923001FB
:1006E0001092310184B5826084BD84B5816084BD7F
:1006F00085B5826085BD85B5816085BDEEE6F0E09B
:10070000808181608083E1E8F0E080818260808385
:10071000808181608083E0E8F0E080818160808377
:10072000E1EBF0E0808184608083E0EBF0E08081A9
:1007300081608083EAE7F0E080818460808380814B
:1007400082608083808181608083808180688083F3
:100750001092C1000895282F3327C90183579F4F56
:10076000FC01949127583F4FF9018491882381F02F
:10077000E82FFF27E659FF4FE491FF27662329F46E
:10078000808190958923808308958081892B80833F
:100790000895482F5527CA018F559F4FFC0124917A
:1007A000CA0183579F4FFC01949147585F4FFA014C
:1007B0003491332319F480E090E00895222331F13D
:1007C000233021F4809180008F7705C0243031F4EC
:1007D000809180008F7D8093800018C0213019F4B3
:1007E00084B58F7704C0223021F484B58F7D84BD19
:1007F0000DC0263021F48091B0008F7705C02730DE
:1008000029F48091B0008F7D8093B000E32FFF2703
:10081000EC58FF4FE491FF27808120E030E08923EE
:1008200011F021E030E0C9010895482F5527CA0191
:100830008F559F4FFC012491CA0183579F4FFC01A4
:10084000949147585F4FFA0134913323C1F1222329
:1008500031F1233021F4809180008F7705C024305E
:1008600031F4809180008F7D8093800018C021300A
:1008700019F484B58F7704C0223021F484B58F7DBC
:1008800084BD0DC0263021F48091B0008F7705C063
:10089000273029F48091B0008F7D8093B000E32F42
:1008A000FF27E159FF4FE491FF27662329F4808158
:1008B00090958923808308958081892B8083089572
:1008C000CF92DF92EF92FF920F931F93CF93DF931C
:1008D000E82EF62EC42ED22EC0E0D0E007E010E0C5
:1008E0006D2D7727CC2039F40C2E02C075956795B5
:1008F0000A94E2F706C0002E02C0759567950A9427
:10090000E2F761708E2D0E94150461E08F2D0E9428
:10091000150460E08F2D0E941504219601501040AF
:10092000C830D105E9F6DF91CF911F910F91FF906B
:10093000EF90DF90CF90089508950895CB01BA010C
:100940003327442755270E94350608952AE00E9440
:100950009E040895AB01662777270E94A604089598
:10096000862F0E9425060895862F0E942506089549
:100970000F931F938C016DE00E94B4046AE0C801DC
:100980000E94B4041F910F9108950F931F938C013F
:100990000E94A604C8010E94B8041F910F910895F7
:1009A0000F931F938C010E94AA04C8010E94B804EF
:1009B0001F910F9108950F931F938C010E94B00413
:1009C000C8010E94B8041F910F9108950F931F93BF
:1009D0008C010E94B404C8010E94B8041F910F91B9
:1009E0000895EF92FF920F931F93CF93DF93EC0143
:1009F0007A018B0177FF0BC06DE20E94B404109561
:100A00000095F094E094E11CF11C011D111D2AE0F9
:100A1000B801A701CE010E949E04DF91CF911F91E2
:100A20000F91FF90EF9008950F931F938C010E94F8
:100A3000F104C8010E94B8041F910F910895211577
:100A4000310521F4642F0E94B40408952A30310541
:100A500019F40E94F10408950E949E0408950F93D2
:100A60001F938C010E941F05C8010E94B8041F91AA
:100A70000F910895AB01662757FD6095762F0E9470
:100A8000F10408950F931F938C010E943A05C80149
:100A90000E94B8041F910F910895CB010E94F406A3
:100AA00008950F931F938C010E944D05C8010E9469
:100AB000B8041F910F9108950E94DE0508950E94C9
:100AC000BF0508950E94AE0599270895CB01BA018C
:100AD0000E946D05089508950895EF92FF920F9377
:100AE0001F937B018C0122E030E040E050E00E9447
:100AF0003607205C3D4B404F5F4FCA01B901A8014A
:100B000097010E9436072150304040405040BB279B
:100B100057FDBA95A52F942F832F2F5F3F4F4F4F2F
:100B20005F4F8093C50021502093C400E1ECF0E0BA
:100B300080818061808380818860808380818068FB
:100B400080831F910F91FF90EF900895982F8091CF
:100B5000C00085FFFCCF9093C600089580912A01C4
:100B600090912B0120912C0130912D01821B930B30
:100B700080589F4F60E870E00E94010708954091FF
:100B80002C0150912D0180912A0190912B01841705
:100B9000950719F48FEF9FEF0895FA01EE5CFE4F71
:100BA0002081CA01019660E870E00E9401079093DD
:100BB0002D0180932C01822F9927089580912C017B
:100BC00090912D0190932B0180932A0108951F92FB
:100BD0000F920FB60F9211242F933F934F935F9371
:100BE0006F937F938F939F93AF93BF93EF93FF93F5
:100BF0004091C600E0912A01F0912B01CF010196AE
:100C000060E870E00E9401079C0180912C019091A6
:100C10002D012817390739F0EE5CFE4F40833093E1
:100C20002B0120932A01FF91EF91BF91AF919F91EA
:100C30008F917F916F915F914F913F912F910F9085
:100C40000FBE0F901F9018950895982F8091C000A7
:100C500085FFFCCF9093C60008958091C00085FF6A
:100C6000FCCF8AE08093C60008952F923F924F9266
:100C70005F926F927F928F929F92AF92BF92CF922C
:100C8000DF92EF92FF920F931F93CF93DF93CDB735
:100C9000DEB7A0970FB6F894DEBF0FBECDBF6B01D5
:100CA0007C0129013A01611571058105910541F425
:100CB0008091C00085FFFCCF80E38093C60042C0D6
:100CC0008824992454011E010894211C311C81019F
:100CD000080D191DC701B601A30192010E94140756
:100CE000F80160830894811C911CA11CB11CC701F0
:100CF000B601A30192010E94140769017A0121152E
:100D000031054105510519F7F4013197E20DF31D45
:100D100014C0089481089108A108B10880818A3024
:100D200018F4982F905D02C0982F995C8091C000B4
:100D300085FFFCCF9093C600319781149104A104E4
:100D4000B10439F7A0960FB6F894DEBF0FBECDBF41
:100D5000DF91CF911F910F91FF90EF90DF90CF9097
:100D6000BF90AF909F908F907F906F905F904F90CB
:100D70003F902F90089522E030E040E050E00E9444
:100D80003506089528E030E040E050E00E94350646
:100D9000089520E130E040E050E00E9435060895DB
:100DA000EF92FF920F931F937B018C0197FF0FC06F
:100DB0008091C00085FFFCCF8DE28093C600109526
:100DC0000095F094E094E11CF11C011D111D2AE036
:100DD00030E040E050E0C801B7010E9435061F91A5
:100DE0000F91FF90EF900895FC0107C08091C00023
:100DF00085FFFCCF31969093C60090819923B1F77F
:100E0000089597FB092E07260AD077FD04D049D014
:100E100006D000201AF4709561957F4F0895F6F77B
:100E2000909581959F4F0895A1E21A2EAA1BBB1B96
:100E3000FD010DC0AA1FBB1FEE1FFF1FA217B307A6
:100E4000E407F50720F0A21BB30BE40BF50B661FBC
:100E5000771F881F991F1A9469F760957095809580
:100E600090959B01AC01BD01CF01089597FB092E20
:100E700005260ED057FD04D0D7DF0AD0001C38F469
:100E800050954095309521953F4F4F4F5F4F0895B6
:100E9000F6F790958095709561957F4F8F4F9F4F96
:100EA0000895AA1BBB1B51E107C0AA1FBB1FA617B1
:100EB000B70710F0A61BB70B881F991F5A95A9F703
:100EC00080959095BC01CD010895EE0FFF1F059010
:060ED000F491E02D0994ED
:100ED60048690020542000204820000B000A00002A
:00000001FF
