:100000000C945B000C9481000C9481000C94810092
:100010000C9481000C9481000C9481000C9481005C
:100020000C9481000C9481000C9481000C9481004C
:100030000C9481000C9481000C9481000C9481003C
:100040000C940E020C9481000C94F8040C94810022
:100050000C9481000C9481000C9481000C9481001C
:100060000C9481000C9481007D04000024272A0058
:100070000025282B0000232629040404040404047A
:100080000402020202020203030303030301020447
:10009000081020408001020408102001020408100A
:1000A0002000000007000201000003040600000019
:1000B00000000000000011241FBECFEFD4E0DEBF1F
:1000C000CDBF11E0A0E0B1E0E8EFFCE002C0059098
:1000D0000D92A636B107D9F711E0A6E6B1E001C04E
:1000E0001D92AF3EB107E1F710E0CAE6D0E004C0D0
:1000F0002297FE010E947806C836D107C9F70C94F2
:1001000003020C94000061E0809163010E94BC0234
:1001100061E0809161010E94BC0261E08091610117
:100120000E94260361E0809163010E94260360E043
:10013000809161010E94260360E0809163010E942A
:10014000260361E0809163010E94260361E08091B3
:1001500061010E94260360E0809163010E942603F2
:100160000895EF92FF920F931F93CF93DF9360E078
:10017000809161010E94BC0261E0809163010E9454
:10018000BC0260E0809163010E942603EE24FF24FC
:1001900000E010E8C0E0D0E0C830D105F9F061E03F
:1001A000809163010E942603809161010E94DA021E
:1001B0009C01029FC001039F900D129F900D11247E
:1001C000E80EF91E60E0809163010E9426032196EB
:1001D000C131D105FCF416950795DECF61E0809121
:1001E00061010E94BC0260E0809161010E942603CF
:1001F00061E0809163010E94260360E080916301C9
:100200000E94260360E0809161010E94BC02C9E067
:10021000D0E0C2CF61E0809163010E942603C70154
:10022000DF91CF911F910F91FF90EF9008951F9351
:10023000CF93DF93182F61E0809163010E94BC028D
:1002400061E0809161010E94BC02212F41E0609138
:100250006301809161010E94710360E080916101FE
:100260000E94BC02809161010E94DA020197D1F3E1
:1002700061E0809163010E94260360E08091630148
:100280000E942603809161010E94DA02892BD1F33A
:10029000C0E0D0E00AC02196CF3FD10561F06AE00E
:1002A00070E080E090E00E944B02809161010E942A
:1002B000DA02019781F360E071E086E691E00E9446
:1002C0005E048AE090E0C89FB001C99F700DD89F7E
:1002D000700D112486E691E00E945304DF91CF91C6
:1002E0001F9108950E94830085E00E9417010E94DB
:1002F000B10008950E94830083E00E9417010E94CC
:10030000B1000895EF92FF920F931F9360ED77E095
:1003100080E090E00E944B0206E611E061E171E0AE
:10032000C8010E9462040E947A017C016AE371E0C4
:10033000C8010E945E04B701C8010E9453040E94D4
:1003400072017C0166E471E0C8010E945E04B7019D
:10035000C8010E9453041F910F91FF90EF900895E0
:10036000CF93DF9361E0809161010E94BC0261E064
:10037000809163010E94BC022FEF40E06091630115
:10038000809161010E9471032FEF40E06091630151
:10039000809161010E94710361E0809161010E947E
:1003A0002603C0E0D0E060E0809163010E94260354
:1003B00061E0809163010E9426032196CF30D10530
:1003C00091F7DF91CF9108950F931F9361E0809192
:1003D00061010E94BC0261E0809163010E94BC0245
:1003E00006E611E040E855E260E070E0C8010E94D6
:1003F000770460E571E0C8010E9462040E94B001C8
:100400001F910F910895CFEFD4E0DEBFCDBF0E94C2
:100410007A020E94E4010E948201FDCF1F920F9296
:100420000FB60F9211248F939F93AF93BF93809138
:100430006B0190916C01A0916D01B0916E010196DC
:10044000A11DB11D80936B0190936C01A0936D0170
:10045000B0936E01BF91AF919F918F910F900FBE9E
:100460000F901F90189560916B0170916C018091B5
:100470006D0190916E0127E0660F771F881F991F0D
:100480002A95D1F72DE730E040E050E00E942506A4
:10049000CA01B9010895AF92BF92CF92DF92EF9255
:1004A000FF920F931F935B016C010E9433027B014B
:1004B0008C010E9433026E197F09800B910B6A1523
:1004C0007B058C059D05A8F31F910F91FF90EF9080
:1004D000DF90CF90BF90AF900895019751F0880FB3
:1004E000991F880F991F02972FB7F8940197F1F77A
:1004F0002FBF0895789410926B0110926C011092A6
:100500006D0110926E0184B5826084BD84B58160F6
:1005100084BD85B5826085BD85B5816085BDEEE60B
:10052000F0E0808181608083E1E8F0E0808182609A
:100530008083808181608083E0E8F0E08081816059
:100540008083E1EBF0E0808184608083E0EBF0E089
:10055000808181608083EAE7F0E08081846080832D
:1005600080818260808380818160808380818068D7
:1005700080831092C1000895282F3327C901835723
:100580009F4FFC01949127583F4FF9018491882394
:1005900081F0E82FFF27E659FF4FE491FF276623FC
:1005A00029F4808190958923808308958081892B07
:1005B00080830895482F5527CA018F559F4FFC010E
:1005C0002491CA0183579F4FFC01949147585F4F74
:1005D000FA013491332319F480E090E00895222346
:1005E00031F1233021F4809180008F7705C02430D1
:1005F00031F4809180008F7D8093800018C021307D
:1006000019F484B58F7704C0223021F484B58F7D2E
:1006100084BD0DC0263021F48091B0008F7705C0D5
:10062000273029F48091B0008F7D8093B000E32FB4
:10063000FF27EC58FF4FE491FF27808120E030E056
:10064000892311F021E030E0C9010895482F552792
:10065000CA018F559F4FFC012491CA0183579F4FB8
:10066000FC01949147585F4FFA0134913323C1F153
:10067000222331F1233021F4809180008F7705C04F
:10068000243031F4809180008F7D8093800018C0E9
:10069000213019F484B58F7704C0223021F484B559
:1006A0008F7D84BD0DC0263021F48091B0008F77FE
:1006B00005C0273029F48091B0008F7D8093B00071
:1006C000E32FFF27E159FF4FE491FF27662329F429
:1006D000808190958923808308958081892B8083F0
:1006E0000895CF92DF92EF92FF920F931F93CF93D3
:1006F000DF93E82EF62EC42ED22EC0E0D0E007E025
:1007000010E06D2D7727CC2039F40C2E02C07595A2
:1007100067950A94E2F706C0002E02C075956795AA
:100720000A94E2F761708E2D0E94260361E08F2DFE
:100730000E94260360E08F2D0E942603219601501F
:100740001040C830D105E9F6DF91CF911F910F918C
:10075000FF90EF90DF90CF90089508950895CB011A
:10076000BA013327442755270E94460508952AE0F9
:100770000E94AF030895AB01662777270E94B70355
:100780000895862F0E9436050895862F0E9436050B
:1007900008950F931F938C016DE00E94C5036AE0DA
:1007A000C8010E94C5031F910F9108950F931F93D5
:1007B0008C010E94B703C8010E94C9031F910F91C9
:1007C00008950F931F938C010E94BB03C8010E94E0
:1007D000C9031F910F9108950F931F938C010E94DD
:1007E000C103C8010E94C9031F910F9108950F937F
:1007F0001F938C010E94C503C8010E94C9031F9169
:100800000F910895EF92FF920F931F93CF93DF9371
:10081000EC017A018B0177FF0BC06DE20E94C503EA
:1008200010950095F094E094E11CF11C011D111D40
:100830002AE0B801A701CE010E94AF03DF91CF915A
:100840001F910F91FF90EF9008950F931F938C01CC
:100850000E940204C8010E94C9031F910F910895CC
:100860002115310521F4642F0E94C50308952A3013
:10087000310519F40E94020408950E94AF030895FF
:100880000F931F938C010E943004C8010E94C9037A
:100890001F910F910895AB01662757FD6095762F44
:1008A0000E94020408950F931F938C010E944B0431
:1008B000C8010E94C9031F910F910895CB010E94A6
:1008C000050608950F931F938C010E945E04C801D2
:1008D0000E94C9031F910F9108950E94EF0408958B
:1008E0000E94D00408950E94BF0499270895CB0167
:1008F000BA010E947E04089508950895EF92FF9230
:100900000F931F937B018C0122E030E040E050E028
:100910000E944706205C3D4B404F5F4FCA01B90122
:10092000A80197010E9447062150304040405040A6
:10093000BB2757FDBA95A52F942F832F2F5F3F4FCD
:100940004F4F5F4F8093C50021502093C400E1ECCE
:10095000F0E08081806180838081886080838081F5
:10096000806880831F910F91FF90EF900895982FDA
:100970008091C00085FFFCCF9093C60008958091C0
:100980006701909168012091690130916A01821B91
:10099000930B80589F4F60E870E00E941206089504
:1009A0004091690150916A018091670190916801BD
:1009B0008417950719F48FEF9FEF0895FA01E15915
:1009C000FE4F2081CA01019660E870E00E94120685
:1009D00090936A0180936901822F992708958091ED
:1009E000690190916A01909368018093670108956D
:1009F0001F920F920FB60F9211242F933F934F9394
:100A00005F936F937F938F939F93AF93BF93EF9376
:100A1000FF934091C600E0916701F0916801CF011A
:100A2000019660E870E00E9412069C0180916901C5
:100A300090916A012817390739F0E159FE4F408338
:100A40003093680120936701FF91EF91BF91AF91BF
:100A50009F918F917F916F915F914F913F912F91D6
:100A60000F900FBE0F901F9018950895982F8091AA
:100A7000C00085FFFCCF9093C60008958091C00010
:100A800085FFFCCF8AE08093C60008952F923F92A5
:100A90004F925F926F927F928F929F92AF92BF928E
:100AA000CF92DF92EF92FF920F931F93CF93DF933A
:100AB000CDB7DEB7A0970FB6F894DEBF0FBECDBF9F
:100AC0006B017C0129013A016115710581059105D0
:100AD00041F48091C00085FFFCCF80E38093C60085
:100AE00042C08824992454011E010894211C311C01
:100AF0008101080D191DC701B601A30192010E94D1
:100B00002506F80160830894811C911CA11CB11C6E
:100B1000C701B601A30192010E94250669017A016D
:100B2000211531054105510519F7F4013197E20D01
:100B3000F31D14C0089481089108A108B1088081B0
:100B40008A3018F4982F905D02C0982F995C80919C
:100B5000C00085FFFCCF9093C600319781149104AB
:100B6000A104B10439F7A0960FB6F894DEBF0FBE0A
:100B7000CDBFDF91CF911F910F91FF90EF90DF904C
:100B8000CF90BF90AF909F908F907F906F905F902D
:100B90004F903F902F90089522E030E040E050E0E9
:100BA0000E944605089528E030E040E050E00E94B1
:100BB0004605089520E130E040E050E00E944605FF
:100BC0000895EF92FF920F931F937B018C0197FF83
:100BD0000FC08091C00085FFFCCF8DE28093C600DE
:100BE00010950095F094E094E11CF11C011D111D7D
:100BF0002AE030E040E050E0C801B7010E9446051D
:100C00001F910F91FF90EF900895FC0107C0809114
:100C1000C00085FFFCCF31969093C6009081992348
:100C2000B1F7089597FB092E07260AD077FD04D067
:100C300049D006D000201AF4709561957F4F089531
:100C4000F6F7909581959F4F0895A1E21A2EAA1B61
:100C5000BB1BFD010DC0AA1FBB1FEE1FFF1FA2176C
:100C6000B307E407F50720F0A21BB30BE40BF50B69
:100C7000661F771F881F991F1A9469F760957095F2
:100C8000809590959B01AC01BD01CF01089597FB24
:100C9000092E05260ED057FD04D0D7DF0AD0001C40
:100CA00038F450954095309521953F4F4F4F5F4F09
:100CB0000895F6F790958095709561957F4F8F4FC9
:100CC0009F4F0895AA1BBB1B51E107C0AA1FBB1F62
:100CD000A617B70710F0A61BB70B881F991F5A95C8
:100CE000A9F780959095BC01CD010895EE0FFF1FE7
:080CF0000590F491E02D099438
:100CF800526573706F6E73652074696D65203D2051
:100D0800005374617274696E672054656D70657202
:100D180061747572652F48756D696469747920729C
:100D2800656164696E672E2E2E0054656D70726160
:100D3800747572653A0048756D69646974793A002A
:100D4800526573657474696E67205348542E2E2E4D
:060D5800000A000B000080
:00000001FF
