:100000000C945C000C9482000C9482000C9482008E
:100010000C9482000C9482000C9482000C94820058
:100020000C9482000C9482000C9482000C94820048
:100030000C9482000C9482000C9482000C94820038
:100040000C9429010C9482000C947D050C94820080
:100050000C9482000C9482000C9482000C94820018
:100060000C9482000C94820092005C030000242710
:100070002A000025282B0000232629040404040458
:100080000404040202020202020303030303030145
:10009000020408102040800102040810200102041C
:1000A0000810200000000700020100000304060001
:1000B000000000000000000011241FBECFEFD4E0BC
:1000C000DEBFCDBF11E0A0E0B1E0E0E4FEE002C0A1
:1000D00005900D92A830B107D9F711E0A8E0B1E082
:1000E00001C01D92A93AB107E1F710E0CCE6D0E0DB
:1000F00004C02297FE010E941C07C836D107C9F729
:100100000C941E010C940000019759F46F5F7F4F0F
:1001100041F488E091E00E946A0380E191E00E944E
:100120006A0308956FEF7FEF81E090E00E94840002
:1001300008951F938AE191E00E945203882309F4F5
:1001400055C061E0809106010E9441028AE191E080
:100150000E944F03182F68E270E080E090E00E9458
:10016000660160E0809106010E9441021136C1F1F2
:1001700012362CF4812F80538A30C0F505C0143616
:1001800051F1133799F51AC02091180130911901D6
:100190008AE090E0AC01249FC001259F900D349F20
:1001A000900D1124212F332727FD3095820F931FA7
:1001B000C097909319018093180118C0609118019D
:1001C0007091190188E091E00E949C03109219013E
:1001D000109218010BC088E091E00E94870306C0CE
:1001E0006FE070E088E091E00E94E2040E94FA0370
:1001F0001F9108950F931F9308E011E062E070E0F3
:10020000C8010E94E20468E978E0C8010E947F0307
:100210000AE111E040E05BE460E070E0C8010E94A8
:10022000560360E071E0C8010E943D0361E08091E7
:1002300006010E94D7011F910F910895CFEFD4E0DE
:10024000DEBFCDBF0E9495010E94FA000E94990076
:10025000FDCF1F920F920FB60F9211248F939F9391
:10026000AF93BF938091250190912601A091270122
:10027000B09128010196A11DB11D80932501909395
:100280002601A0932701B0932801BF91AF919F91C0
:100290008F910F900FBE0F901F90189560912501C0
:1002A00070912601809127019091280127E0660F27
:1002B000771F881F991F2A95D1F72DE730E040E07E
:1002C00050E00E94C906CA01B9010895AF92BF92D9
:1002D000CF92DF92EF92FF920F931F935B016C011D
:1002E0000E944E017B018C010E944E016E197F0914
:1002F000800B910B6A157B058C059D05A8F31F915A
:100300000F91FF90EF90DF90CF90BF90AF90089546
:10031000019751F0880F991F880F991F02972FB7E7
:10032000F8940197F1F72FBF089578941092250162
:1003300010922601109227011092280184B5826044
:1003400084BD84B5816084BD85B5826085BD85B579
:10035000816085BDEEE6F0E0808181608083E1E828
:10036000F0E0808182608083808181608083E0E82A
:10037000F0E0808181608083E1EBF0E08081846047
:100380008083E0EBF0E0808181608083EAE7F0E049
:1003900080818460808380818260808380818160AD
:1003A00080838081806880831092C1000895282F07
:1003B0003327C90181579F4FFC01949125583F4F26
:1003C000F9018491882381F0E82FFF27E459FF4F3A
:1003D000E491FF27662329F4808190958923808307
:1003E00008958081892B80830895482F5527CA015D
:1003F0008D559F4FFC012491CA0181579F4FFC01ED
:10040000949145585F4FFA013491332319F480E0F9
:1004100090E00895222331F1233021F4809180006F
:100420008F7705C0243031F4809180008F7D8093D8
:10043000800018C0213019F484B58F7704C02230B1
:1004400021F484B58F7D84BD0DC0263021F48091C8
:10045000B0008F7705C0273029F48091B0008F7DE0
:100460008093B000E32FFF27EA58FF4FE491FF2766
:10047000808120E030E0892311F021E030E0C901E3
:100480000895482F5527CA018D559F4FFC0124918F
:10049000CA0181579F4FFC01949145585F4FFA0163
:1004A00034913323C1F1222331F1233021F480919F
:1004B00080008F7705C0243031F4809180008F7DDB
:1004C0008093800018C0213019F484B58F7704C060
:1004D000223021F484B58F7D84BD0DC0263021F4F7
:1004E0008091B0008F7705C0273029F48091B0004B
:1004F0008F7D8093B000E32FFF27EF58FF4FE491EB
:10050000FF27662329F480819095892380830895AD
:100510008081892B8083089508950895CB01BA01C5
:100520003327442755270E94CB0508952AE00E94CF
:100530008E020895AB01662777270E9496020895E0
:10054000862F0E94BB050895862F0E94BB05089543
:100550000F931F938C016DE00E94A4026AE0C80112
:100560000E94A4021F910F9108950F931F938C0175
:100570000E949602C8010E94A8021F910F9108953F
:100580000F931F938C010E949A02C8010E94A80237
:100590001F910F9108950F931F938C010E94A00249
:1005A000C8010E94A8021F910F9108950F931F93F5
:1005B0008C010E94A402C8010E94A8021F910F9101
:1005C0000895EF92FF920F931F93CF93DF93EC0167
:1005D0007A018B0177FF0BC06DE20E94A402109597
:1005E0000095F094E094E11CF11C011D111D2AE01E
:1005F000B801A701CE010E948E02DF91CF911F9119
:100600000F91FF90EF9008950F931F938C010E941C
:10061000E102C8010E94A8021F910F9108952115BF
:10062000310521F4642F0E94A40208952A30310577
:1006300019F40E94E10208950E948E0208950F931A
:100640001F938C010E940F03C8010E94A8021F91F2
:100650000F910895AB01662757FD6095762F0E9494
:10066000E10208950F931F938C010E942A03C80191
:100670000E94A8021F910F910895CB010E948A0643
:1006800008950F931F938C010E943D03C8010E949F
:10069000A8021F910F9108950E94740508950E9469
:1006A000550508950E94440599270895CB01BA0184
:1006B0000E940305089508950895FC0110828FEFAC
:1006C00081831382128282E2848386E98583178282
:1006D00016820895FC0110828FEF818313821282AB
:1006E00082E2848386E9858317821682089524E056
:1006F000769567952A95E1F7FC016483089534E0C7
:10070000769567953A95E1F7FC0165830895ABE12D
:10071000B1E00CC0E817F90739F4868197818D9311
:100720009C93178216820895DF011696ED91FC9135
:100730001197309779F70895EF92FF920F931F93D7
:10074000CF93DF93EC0177FF03C060E070E005C05A
:10075000653B710514F064EB70E06983EC81EE2E6B
:10076000FF2400271127102F0F2DFE2CEE247727B2
:10077000882799272D8133272E1B3109442737FDE0
:100780004095542F542F432F322F22270E94970633
:1007900024EB30E040E050E00E94EB06E20EF31E56
:1007A000041F151FC801B70120E430E040E050E00D
:1007B0000E94EB063B832A83DF91CF911F910F911B
:1007C000FF90EF900895FC01818199270895E091B1
:1007D0001B01F0911C0109C0E817F90719F481E029
:1007E00090E008950680F781E02D3097A9F780E02A
:1007F00090E008958F929F92AF92BF92CF92DF9236
:10080000EF92FF920F931F93CF93DF93CDB7DEB795
:100810008DB69EB60E944E0120911D0130911E01A1
:1008200040911F01509120016217730784079507BB
:1008300050F02C5E3F4F4F4F5F4F62177307840796
:10084000950708F4ADC060931D0170931E0180935D
:100850001F0190932001E0911B01F0911C01BB242A
:1008600008C082819381892B09F0B3940680F781B7
:10087000E02D3097B1F7BB2009F492C08B2D99275A
:10088000880F991F2DB73EB7281B390B0FB6F89468
:100890003EBF0FBE2DBFCDB6DEB60894C11CD11C25
:1008A000A0911B01B0911C0120E011C0FD018281CB
:1008B0009381892B49F0E22FFF27EE0FFF1FEC0DEC
:1008C000FD1DB183A0832F5FFD01A681B781109725
:1008D00069F700E011E025C0812F9927DC01AA0FFC
:1008E000BB1FAC0DBD1D6D917C9111977C010894CF
:1008F000E108F108EE0CFF1CEC0CFD1CF701408137
:100900005181FB0122813381FA0182819381281771
:10091000390730F44D935C93F7017183608301E0F4
:100920001F5F1B15C9F60023A1F610E00EC0E12FD2
:10093000FF27EE0FFF1FEC0DFD1D0190F081E02D54
:1009400061E080810E9441021F5F1B1581F746B55F
:10095000A42E00E0EE24FF2421C0E02FFF27EE0F9D
:10096000FF1FEC0DFD1D0190F081E02D22813381F0
:100970002A0D311D16B5141720F480E091E0E80E21
:10098000F91E412FC701810F911D2817390790F7D4
:1009900060E080810E9441020F5F412F0B15E9F654
:1009A0000FB6F8949EBE0FBE8DBEDF91CF911F9102
:1009B0000F91FF90EF90DF90CF90BF90AF909F90FE
:1009C0008F9008950F931F938C01CB01F8016083E2
:1009D0002FEF21831382128220911B0130911C0181
:1009E0003783268310931C0100931B0160E00E9453
:1009F000410261E0F80180810E94D70181E090E02E
:100A00001F910F910895EF92FF920F931F937B0117
:100A10008C0122E030E040E050E00E94EB06205CD8
:100A20003D4B404F5F4FCA01B901A80197010E9499
:100A3000EB062150304040405040BB2757FDBA954F
:100A4000A52F942F832F2F5F3F4F4F4F5F4F8093E2
:100A5000C50021502093C400E1ECF0E0808180616A
:100A600080838081886080838081806880831F91FB
:100A70000F91FF90EF900895982F8091C00085FF0F
:100A8000FCCF9093C600089580912101909122019E
:100A90002091230130912401821B930B80589F4F9A
:100AA00060E870E00E94B6060895409123015091DD
:100AB000240180912101909122018417950719F456
:100AC0008FEF9FEF0895FA01E75DFE4F2081CA0185
:100AD000019660E870E00E94B6069093240180932E
:100AE0002301822F99270895809123019091240159
:100AF000909322018093210108951F920F920FB6C7
:100B00000F9211242F933F934F935F936F937F9393
:100B10008F939F93AF93BF93EF93FF934091C60042
:100B2000E0912101F0912201CF01019660E870E08F
:100B30000E94B6069C018091230190912401281700
:100B4000390739F0E75DFE4F40833093220120934F
:100B50002101FF91EF91BF91AF919F918F917F9173
:100B60006F915F914F913F912F910F900FBE0F901A
:100B70001F9018950895982F8091C00085FFFCCF95
:100B80009093C60008958091C00085FFFCCF8AE055
:100B90008093C60008952F923F924F925F926F927A
:100BA0007F928F929F92AF92BF92CF92DF92EF92FD
:100BB000FF920F931F93CF93DF93CDB7DEB7A0972C
:100BC0000FB6F894DEBF0FBECDBF6B017C012901CB
:100BD0003A01611571058105910541F48091C000CC
:100BE00085FFFCCF80E38093C60042C0882499240F
:100BF00054011E010894211C311C8101080D191D8E
:100C0000C701B601A30192010E94C906F8016083E1
:100C10000894811C911CA11CB11CC701B601A30141
:100C200092010E94C90669017A0121153105410529
:100C3000510519F7F4013197E20DF31D14C0089422
:100C400081089108A108B10880818A3018F4982F92
:100C5000905D02C0982F995C8091C00085FFFCCF09
:100C60009093C600319781149104A104B10439F71F
:100C7000A0960FB6F894DEBF0FBECDBFDF91CF9127
:100C80001F910F91FF90EF90DF90CF90BF90AF90AA
:100C90009F908F907F906F905F904F903F902F909C
:100CA000089522E030E040E050E00E94CB05089536
:100CB00028E030E040E050E00E94CB05089520E1BC
:100CC00030E040E050E00E94CB050895EF92FF92A3
:100CD0000F931F937B018C0197FF0FC08091C00081
:100CE00085FFFCCF8DE28093C60010950095F094AF
:100CF000E094E11CF11C011D111D2AE030E040E0F0
:100D000050E0C801B7010E94CB051F910F91FF90E1
:100D1000EF900895FC0107C08091C00085FFFCCFD3
:100D200031969093C60090819923B1F70895629F00
:100D3000D001739FF001829FE00DF11D649FE00DD3
:100D4000F11D929FF00D839FF00D749FF00D659F34
:100D5000F00D9927729FB00DE11DF91F639FB00D33
:100D6000E11DF91FBD01CF011124089597FB092E44
:100D700007260AD077FD04D049D006D000201AF407
:100D8000709561957F4F0895F6F7909581959F4FE7
:100D90000895A1E21A2EAA1BBB1BFD010DC0AA1FBC
:100DA000BB1FEE1FFF1FA217B307E407F50720F0D4
:100DB000A21BB30BE40BF50B661F771F881F991F4F
:100DC0001A9469F760957095809590959B01AC0198
:100DD000BD01CF01089597FB092E05260ED057FDC2
:100DE00004D0D7DF0AD0001C38F4509540953095D8
:100DF00021953F4F4F4F5F4F0895F6F7909580959F
:100E0000709561957F4F8F4F9F4F0895AA1BBB1B15
:100E100051E107C0AA1FBB1FA617B70710F0A61BFA
:100E2000B70B881F991F5A95A9F780959095BC011B
:100E3000CD010895EE0FFF1F0590F491E02D099468
:080E40005265616479000D00A8
:00000001FF
