:100000000C945A000C9475000C9475000C947500B7
:100010000C9475000C9475000C9475000C9475008C
:100020000C9475000C9475000C9475000C9475007C
:100030000C9475000C9475000C9475000C9475006C
:100040000C94C5000C9475000C9475000C9475000C
:100050000C9475000C9475000C9475000C9475004C
:100060000C9475000C947500000024272A000025CC
:10007000282B000023262904040404040404040299
:100080000202020202030303030303010204081035
:100090002040800102040810200102040810200002
:1000A0000000070002010000030406000000000039
:1000B0000000000011241FBECFEFD4E0DEBFCDBF93
:1000C00011E0A0E0B1E0E4E9F4E002C005900D9297
:1000D000A630B107D9F711E0A6E0B1E001C01D924A
:1000E000A031B107E1F70C94BA000C9400000E9413
:1000F000EA00209108013091090140910A015091D4
:100100000B01621B730B840B950B20910201309144
:100110000301409104015091050126173707480754
:10012000590708F50E94EA006093080170930901DD
:1001300080930A0190930B01809106019091070131
:10014000892B39F481E090E09093070180930601B8
:1001500004C010920701109206016091060180917F
:1001600000010E94DD01089561E0809100010E947C
:1001700073010895CFEFD4E0DEBFCDBF0E943101FF
:100180000E94B4000E947700FDCF1F920F920FB61D
:100190000F9211248F939F93AF93BF9380910C0183
:1001A00090910D01A0910E01B0910F010196A11D3A
:1001B000B11D80930C0190930D01A0930E01B0939B
:1001C0000F01BF91AF919F918F910F900FBE0F9034
:1001D0001F90189560910C0170910D0180910E0196
:1001E00090910F0127E0660F771F881F991F2A95AE
:1001F000D1F72DE730E040E050E00E942802CA012C
:10020000B9010895AF92BF92CF92DF92EF92FF9221
:100210000F931F935B016C010E94EA007B018C012C
:100220000E94EA006E197F09800B910B6A157B050D
:100230008C059D05A8F31F910F91FF90EF90DF9023
:10024000CF90BF90AF900895019751F0880F991FFC
:10025000880F991F02972FB7F8940197F1F72FBFD6
:100260000895789410920C0110920D0110920E01D5
:1002700010920F0184B5826084BD84B5816084BD15
:1002800085B5826085BD85B5816085BDEEE6F0E00F
:10029000808181608083E1E8F0E0808182608083FA
:1002A000808181608083E0E8F0E0808181608083EC
:1002B000E1EBF0E0808184608083E0EBF0E080811E
:1002C00081608083EAE7F0E08081846080838081C0
:1002D0008260808380818160808380818068808368
:1002E0001092C1000895282F3327C90185579F4FC9
:1002F000FC01949129583F4FF9018491882381F0A2
:10030000E82FFF27E859FF4FE491FF27662329F4E0
:10031000808190958923808308958081892B8083B3
:100320000895482F5527CA0181569F4FFC012491FB
:10033000CA0185579F4FFC01949149585F4FFA01BC
:100340003491332319F480E090E00895222331F1B1
:10035000233021F4809180008F7705C0243031F460
:10036000809180008F7D8093800018C0213019F427
:1003700084B58F7704C0223021F484B58F7D84BD8D
:100380000DC0263021F48091B0008F7705C0273052
:1003900029F48091B0008F7D8093B000E32FFF2778
:1003A000EE58FF4FE491FF27808120E030E0892361
:1003B00011F021E030E0C9010895482F5527CA0106
:1003C00081569F4FFC012491CA0185579F4FFC0124
:1003D000949149585F4FFA0134913323C1F122239C
:1003E00031F1233021F4809180008F7705C02430D3
:1003F00031F4809180008F7D8093800018C021307F
:1004000019F484B58F7704C0223021F484B58F7D30
:1004100084BD0DC0263021F48091B0008F7705C0D7
:10042000273029F48091B0008F7D8093B000E32FB6
:10043000FF27E359FF4FE491FF27662329F48081CA
:1004400090958923808308958081892B80830895E6
:10045000A1E21A2EAA1BBB1BFD010DC0AA1FBB1FC8
:10046000EE1FFF1FA217B307E407F50720F0A21B3A
:10047000B30BE40BF50B661F771F881F991F1A94A7
:1004800069F760957095809590959B01AC01BD01D1
:04049000CF010895FB
:060494000D00E80300006A
:00000001FF
