:100000000C945B000C9481000C9481000C94810092
:100010000C9481000C9481000C9481000C9481005C
:100020000C9481000C9481000C9481000C9481004C
:100030000C9481000C9481000C9481000C9481003C
:100040000C9470010C9481000C944D030C9481006D
:100050000C9481000C9481000C9481000C9481001C
:100060000C9481000C9481003705000024272A009D
:100070000025282B0000232629040404040404047A
:100080000402020202020203030303030301020447
:10009000081020408001020408102001020408100A
:1000A0002000000007000201000003040600000019
:1000B00000000000000011241FBECFEFD4E0DEBF1F
:1000C000CDBF11E0A0E0B1E0E4E4FBE002C00590A8
:1000D0000D92A033B107D9F711E0A0E3B1E001C060
:1000E0001D92A73CB107E1F710E0CAE6D0E004C0DA
:1000F0002297FE010E949E05C836D107C9F70C94CD
:1001000065010C940000EF92FF920F931F93CF9321
:10011000DF938C010E949501E801CC0FDD1FCC0F0D
:10012000DD1FCC5CDE4F288139814A815B81621BF7
:10013000730B840B950B6431710581059105F8F003
:10014000000F111F89E2E82E81E0F82EE00EF11E6B
:1001500061E0F70180810E948802005D1E4FF80176
:10016000808191810E94CF0160E0F70180810E942F
:1001700088020E949501688379838A839B83DF913B
:10018000CF911F910F91FF90EF900895CF93DF9340
:10019000C0E0D0E0CE010E9483002196C230D1059C
:1001A000C9F7DF91CF910895CF93DF930E94140395
:1001B000EC0157C00E942503282F80538A3008F095
:1001C0004AC0332727FD3095E0913C01F0913D0175
:1001D000EE0FFF1FE05DFE4F2053304084EB90E0B8
:1001E000AC01249FC001259F900D349F900D1124D8
:1001F00020912D0130912E01820F931F91838083D6
:1002000060E071E082E491E00E94180560913C0199
:1002100070913D0182E491E00E94050563E171E087
:1002200082E491E00E941805E0913C01F0913D01CB
:10023000EE0FFF1FE05DFE4F40815181662757FDA5
:100240006095762F2AE030E082E491E00E94EA0493
:1002500068E171E002C069E171E082E491E00E942E
:100260001C0521975FEFCF3FD50709F0A3CF0E9470
:10027000C600DF91CF9108950F931F93CF93DF9323
:10028000C9E2D1E000E311E061E088810E941E0232
:1002900080912D0190912E01F801819391938F010E
:1002A0002296F1E0CD32DF0779F7DF91CF911F91F0
:1002B0000F91089540E05BE460E070E082E491E03B
:1002C0000E9431050E943C010895CFEFD4E0DEBFCB
:1002D000CDBF0E94DC010E945A010E94D400FDCFD4
:1002E0001F920F920FB60F9211248F939F93AF938B
:1002F000BF938091430190914401A0914501B09139
:1003000046010196A11DB11D8093430190934401C4
:10031000A0934501B0934601BF91AF919F918F91FA
:100320000F900FBE0F901F90189560914301709130
:100330004401809145019091460127E0660F771FA7
:10034000881F991F2A95D1F72DE730E040E050E053
:100350000E944B05CA01B9010895AF92BF92CF9296
:10036000DF92EF92FF920F931F935B016C010E944B
:1003700095017B018C010E9495016E197F09800B0C
:10038000910B6A157B058C059D05A8F31F910F91B4
:10039000FF90EF90DF90CF90BF90AF9008950197BE
:1003A00051F0880F991F880F991F02972FB7F89463
:1003B0000197F1F72FBF089578941092430110929E
:1003C0004401109245011092460184B5826084BDBB
:1003D00084B5816084BD85B5826085BD85B5816049
:1003E00085BDEEE6F0E0808181608083E1E8F0E0A9
:1003F000808182608083808181608083E0E8F0E09A
:10040000808181608083E1EBF0E080818460808383
:10041000E0EBF0E0808181608083EAE7F0E08081BA
:10042000846080838081826080838081816080831A
:100430008081806880831092C1000895282F33271F
:10044000C90183579F4FFC01949127583F4FF901F1
:100450008491882381F0E82FFF27E659FF4FE4912C
:10046000FF27662329F4808190958923808308954E
:100470008081892B80830895482F5527CA018F5585
:100480009F4FFC012491CA0183579F4FFC01949117
:1004900047585F4FFA013491332319F480E090E01C
:1004A0000895222331F1233021F4809180008F7749
:1004B00005C0243031F4809180008F7D80938000CE
:1004C00018C0213019F484B58F7704C0223021F48C
:1004D00084B58F7D84BD0DC0263021F48091B0009D
:1004E0008F7705C0273029F48091B0008F7D8093ED
:1004F000B000E32FFF27EC58FF4FE491FF278081E6
:1005000020E030E0892311F021E030E0C9010895B6
:10051000482F5527CA018F559F4FFC012491CA01CE
:1005200083579F4FFC01949147585F4FFA013491D4
:100530003323C1F1222331F1233021F48091800053
:100540008F7705C0243031F4809180008F7D8093B7
:10055000800018C0213019F484B58F7704C0223090
:1005600021F484B58F7D84BD0DC0263021F48091A7
:10057000B0008F7705C0273029F48091B0008F7DBF
:100580008093B000E32FFF27E159FF4FE491FF274D
:10059000662329F480819095892380830895808142
:1005A000892B80830895EF92FF920F931F937B0115
:1005B0008C0122E030E040E050E00E946D05205CBC
:1005C0003D4B404F5F4FCA01B901A80197010E94FE
:1005D0006D052150304040405040BB2757FDBA9533
:1005E000A52F942F832F2F5F3F4F4F4F5F4F809347
:1005F000C50021502093C400E1ECF0E080818061CF
:1006000080838081886080838081806880831F915F
:100610000F91FF90EF900895982F8091C00085FF73
:10062000FCCF9093C600089580913E0190913F01C8
:100630002091400130914101821B930B80589F4FC4
:1006400060E870E00E9438050895409140015091A3
:10065000410180913E0190913F018417950719F463
:100660008FEF9FEF0895FA01E95BFE4F2081CA01E9
:10067000019660E870E00E943805909341018093F4
:100680004001822F99270895809140019091410166
:1006900090933F0180933E0108951F920F920FB6F1
:1006A0000F9211242F933F934F935F936F937F93F8
:1006B0008F939F93AF93BF93EF93FF934091C600A7
:1006C000E0913E01F0913F01CF01019660E870E0BA
:1006D0000E9438059C0180914001909141012817AA
:1006E000390739F0E95BFE4F408330933F01209397
:1006F0003E01FF91EF91BF91AF919F918F917F91BB
:100700006F915F914F913F912F910F900FBE0F907E
:100710001F9018950895982F8091C00085FFFCCFF9
:100720009093C60008958091C00085FFFCCF8AE0B9
:100730008093C60008952F923F924F925F926F92DE
:100740007F928F929F92AF92BF92CF92DF92EF9261
:10075000FF920F931F93CF93DF93CDB7DEB7A09790
:100760000FB6F894DEBF0FBECDBF6B017C0129012F
:100770003A01611571058105910541F48091C00030
:1007800085FFFCCF80E38093C60042C08824992473
:1007900054011E010894211C311C8101080D191DF2
:1007A000C701B601A30192010E944B05F8016083C5
:1007B0000894811C911CA11CB11CC701B601A301A6
:1007C00092010E944B0569017A012115310541050D
:1007D000510519F7F4013197E20DF31D14C0089487
:1007E00081089108A108B10880818A3018F4982FF7
:1007F000905D02C0982F995C8091C00085FFFCCF6E
:100800009093C600319781149104A104B10439F783
:10081000A0960FB6F894DEBF0FBECDBFDF91CF918B
:100820001F910F91FF90EF90DF90CF90BF90AF900E
:100830009F908F907F906F905F904F903F902F9000
:10084000089522E030E040E050E00E949B030895CC
:1008500028E030E040E050E00E949B03089520E152
:1008600030E040E050E00E949B030895EF92FF9239
:100870000F931F937B018C0197FF0FC08091C000E5
:1008800085FFFCCF8DE28093C60010950095F09413
:10089000E094E11CF11C011D111D2AE030E040E054
:1008A00050E0C801B7010E949B031F910F91FF9078
:1008B000EF900895FC0107C08091C00085FFFCCF38
:1008C00031969093C60090819923B1F708950895C9
:1008D0000895CB01BA013327442755270E949B0373
:1008E00008952AE00E9469040895AB0166277727DE
:1008F0000E9471040895862F0E948B030895862F0D
:100900000E948B0308950F931F938C016DE00E944A
:100910007F046AE0C8010E947F041F910F9108952F
:100920000F931F938C010E947104C8010E948304DD
:100930001F910F9108950F931F938C010E947504CE
:10094000C8010E9483041F910F9108950F931F9374
:100950008C010E947B04C8010E9483041F910F91A7
:1009600008950F931F938C010E947F04C8010E9479
:1009700083041F910F910895EF92FF920F931F939D
:10098000CF93DF93EC017A018B0177FF0BC06DE20F
:100990000E947F0410950095F094E094E11CF11CF6
:1009A000011D111D2AE0B801A701CE010E946904B2
:1009B000DF91CF911F910F91FF90EF9008950F93CA
:1009C0001F938C010E94BC04C8010E9483041F91E4
:1009D0000F9108952115310521F4642F0E947F04A1
:1009E00008952A30310519F40E94BC0408950E942C
:1009F000690408950F931F938C010E94EA04C801B3
:100A00000E9483041F910F910895AB01662757FD43
:100A10006095762F0E94BC0408950F931F938C015C
:100A20000E940505C8010E9483041F910F9108953B
:100A3000CB010E945A0408950F931F938C010E94CA
:100A40001805C8010E9483041F910F9108950E9408
:100A5000440308950E94250308950E9414039927D2
:100A60000895CB01BA010E94D30208950895089514
:100A700097FB092E07260AD077FD04D049D006D06F
:100A800000201AF4709561957F4F0895F6F79095C0
:100A900081959F4F0895A1E21A2EAA1BBB1BFD0151
:100AA0000DC0AA1FBB1FEE1FFF1FA217B307E4074D
:100AB000F50720F0A21BB30BE40BF50B661F771FA5
:100AC000881F991F1A9469F7609570958095909585
:100AD0009B01AC01BD01CF01089597FB092E0526AE
:100AE0000ED057FD04D0D7DF0AD0001C38F4509543
:100AF0004095309521953F4F4F4F5F4F0895F6F742
:100B000090958095709561957F4F8F4F9F4F089579
:100B1000AA1BBB1B51E107C0AA1FBB1FA617B70723
:100B200010F0A61BB70B881F991F5A95A9F780953F
:100B30009095BC01CD010895EE0FFF1F0590F49133
:040B4000E02D099407
:100B44003E3E3E204D6F76696E6720736572766F08
:100B540020230020746F200000556E6B6E6F776E3B
:100B640020436F6D6D616E640000000100BC0200E3
:00000001FF
